:020000040800F2
:1000000000040020B9020008BB020008BB0200087F
:10001000BB020008BB020008BB020008BB020008CC
:10002000BB020008BB020008BB020008613B0008DD
:10003000BB020008BB020008BB020008BB020008AC
:10004000BB020008BB020008BB020008BB0200089C
:10005000BB020008BB020008C161000891610008F2
:10006000616100083161000801610008E15F00087A
:10007000B15F0008815F0008515F0008215F000840
:10008000F15E0008C15E0008BB020008BB02000868
:10009000BB020008BB020008BB0200089160000818
:1000A000BB020008BB020008BB020008BB0200083C
:1000B000515C0008BB020008BB020008BB0200083C
:1000C000BB020008BB020008BB020008BB0200081C
:1000D000BB020008BB020008A15A0008BB020008CE
:1000E00011600008BB020008BB020008BB02000848
:1000F000BB020008BB020008BB020008915E0008BA
:10010000BB020008BB020008BB020008BB020008DB
:10011000BB020008BB020008BB020008BB020008CB
:10012000615E0008315E0008015E0008D15D0008D4
:10013000A15D0008BB020008BB020008BB0200086A
:10014000BB020008BB020008BB020008BB0200089B
:10015000715D0008415D0008115D0008BB020008E8
:10016000BB020008BB020008BB020008BB0200087B
:10017000BB020008BB020008BB020008BB0200086B
:10018000BB020008BB020008BB020008BB0200085B
:10019000BB020008BB020008BB020008BB0200084B
:1001A000BB020008BB020008BB020008BB0200083B
:1001B000BB020008BB020008BB020008BB0200082B
:1001C000BB020008BB020008BB020008BB0200081B
:1001D000BB020008BB020008BB020008BB0200080B
:1001E00072B6274880F30888264880F30988264895
:1001F0004EF60851CEF200010860022080F3148808
:10020000BFF36F8F06F03CF805F012FB4FF055304E
:100210001E491B4A91423CBF41F8040BFAE71C49B6
:10022000184A91423CBF41F8040BFAE719491A4AAF
:100230001A4B9A423EBF51F8040B42F8040BF8E700
:1002400000201749174A91423CBF41F8040BFAE7D6
:1002500005F0CEFF06F00CF8134C144DAC4203DA57
:1002600054F8041B8847F9E704F09AFF104C114D2D
:10027000AC4203DA54F8041B8847F9E705F0F0BFF5
:1002800000040020000800200000000800000020FA
:1002900000040020D869000800080020F0100020A9
:1002A000F0100020DC140020E0010008E00100084C
:1002B000E0010008E001000892E700F000F8FEE726
:1002C0002DE9F04FC1F80CD0C3689D46BDE8F08F12
:1002D000002383F311882846A047002003F050FC38
:1002E000FEE703F075FC00DFFEE7000080F0004051
:1002F00002E000BF81F0004142001FBF5FEA4103FE
:1003000092EA030F7FEA226C7FEA236C6AD04FEAFD
:100310001262D2EB1363C1BFD21841404840414042
:10032000B8BF5B42192B88BF704710F0004F40F4F4
:10033000000020F07F4018BF404211F0004F41F410
:10034000000121F07F4118BF494292EA030F3FD0DC
:10035000A2F1010241FA03FC10EB0C00C3F12003EF
:1003600001FA03F100F0004302D5494260EB40007E
:10037000B0F5000F13D3B0F1807F06D340084FEAE9
:10038000310102F10102FE2A51D2B1F1004F40EBDE
:10039000C25008BF20F0010040EA03007047490046
:1003A00040EB0000013A28BFB0F5000FEDD2B0FAE3
:1003B00080FCACF1080CB2EB0C0200FA0CF0AABF06
:1003C00000EBC25052421843BCBFD04018437047A4
:1003D00092F0000F81F4000106BF80F400000132AA
:1003E000013BB5E74FEA41037FEA226C18BF7FEA81
:1003F000236C21D092EA030F04D092F0000F08BFC3
:100400000846704790EA010F1CBF0020704712F0A9
:100410007F4F04D1400028BF40F00040704712F1E8
:1004200000723CBF00F50000704700F0004343F04D
:10043000FE4040F4000070477FEA226216BF084683
:100440007FEA23630146420206BF5FEA412390EA46
:10045000010F40F4800070474FF0000304E000BF3C
:1004600010F0004348BF40425FEA000C08BF7047ED
:1004700043F0964301464FF000001CE050EA0102B1
:1004800008BF70474FF000030AE000BF50EA0102C6
:1004900008BF704711F0004302D5404261EB4101B3
:1004A0005FEA010C02BF84460146002043F0B643D8
:1004B00008BFA3F18053A3F50003BCFA8CF2083AFD
:1004C000A3EBC25310DB01FA02FC634400FA02FC06
:1004D000C2F12002BCF1004F20FA02F243EB02000D
:1004E00008BF20F00100704702F1200201FA02FC6F
:1004F000C2F1200250EA4C0021FA02F243EB020062
:1005000008BF20EADC7070474FF0FF0C1CEAD052A5
:100510001EBF1CEAD15392EA0C0F93EA0C0F6FD066
:100520001A4480EA010C400218BF5FEA41211ED044
:100530004FF0006343EA501043EA5111A0FB013130
:100540000CF00040B1F5000F3EBF490041EAD37105
:100550005B0040EA010062F17F02FD2A1DD8B3F181
:10056000004F40EBC25008BF20F00100704790F0F0
:10057000000F0CF0004C08BF49024CEA502040EA42
:1005800051207F3AC2BFD2F1FF0340EAC250704708
:1005900040F400004FF00003013A5DDC12F1190F46
:1005A000DCBF00F000407047C2F10002410021FAB8
:1005B00002F1C2F1200200FA02FC5FEA310040F1D0
:1005C000000053EA4C0308BF20EADC70704792F049
:1005D000000F00F0004C02BF400010F4000F013A81
:1005E000F9D040EA0C0093F0000F01F0004C02BF7C
:1005F000490011F4000F013BF9D041EA0C018FE7EB
:100600000CEAD15392EA0C0F18BF93EA0C0F0AD0F0
:1006100030F0004C18BF31F0004CD8D180EA010016
:1006200000F00040704790F0000F17BF90F0004FAF
:10063000084691F0000F91F0004F14D092EA0C0F91
:1006400001D142020FD193EA0C0F03D14B0218BF24
:10065000084608D180EA010000F0004040F0FE406A
:1006600040F40000704740F0FE4040F44000704706
:100670004FF0FF0C1CEAD0521EBF1CEAD15392EA85
:100680000C0F93EA0C0F69D0A2EB030280EA010C75
:1006900049024FEA402037D04FF0805343EA11110E
:1006A00043EA10130CF000408B4238BF5B0042F16C
:1006B0007D024FF4000C8B4224BF5B1A40EA0C0011
:1006C000B3EB510F24BFA3EB510340EA5C00B3EB43
:1006D000910F24BFA3EB910340EA9C00B3EBD10F31
:1006E00024BFA3EBD10340EADC001B0118BF5FEA83
:1006F0001C1CE0D1FD2A3FF650AF8B4240EBC250AC
:1007000008BF20F0010070470CF0004C4CEA50206C
:100710007F32C2BFD2F1FF0340EAC250704740F4BB
:1007200000004FF00003013A37E792F0000F00F0AD
:10073000004C02BF400010F4000F013AF9D040EA2B
:100740000C0093F0000F01F0004C02BF490011F4BF
:10075000000F013BF9D041EA0C0195E70CEAD153B7
:1007600092EA0C0F08D142027FF47DAF93EA0C0F9E
:100770007FF470AF084676E793EA0C0F04D14B0282
:100780003FF44CAF08466EE730F0004C18BF31F034
:10079000004CCAD130F000427FF45CAF31F000432E
:1007A0007FF43CAF5FE700BF4FF0FF3C06E000BFC7
:1007B0004FF0010C02E000BF4FF0010C4DF804CDEA
:1007C0004FEA40024FEA41037FEA226C18BF7FEAFA
:1007D000236C11D001B052EA530C18BF90EA010FFC
:1007E00058BFB2EB030088BFC81738BF6FEAE1708B
:1007F00018BF40F0010070477FEA226C02D15FEA27
:10080000402C05D17FEA236CE4D15FEA412CE1D092
:100810005DF8040B704700BF844608466146FFE759
:100820000FB5FFF7C9FF002848BF10F1000F0FBD3B
:100830004DF808EDFFF7F4FF0CBF012000205DF834
:1008400008FB00BF4DF808EDFFF7EAFF34BF0120B9
:1008500000205DF808FB00BF4DF808EDFFF7E0FF52
:1008600094BF012000205DF808FB00BF4DF808EDA3
:10087000FFF7D2FF94BF012000205DF808FB00BF06
:100880004DF808EDFFF7C8FF34BF012000205DF8E8
:1008900008FB00BF4FEA4002B2F1FE4F0FD34FF00A
:1008A0009E03B3EB12620DD94FEA002343F00043DD
:1008B00010F0004F23FA02F018BF404270474FF08B
:1008C0000000704712F1610F01D1420205D110F012
:1008D000004008BF6FF0004070474FF000007047C5
:1008E00042000ED2B2F1FE4F0BD34FF09E03B3EB9A
:1008F000126209D44FEA002343F0004323FA02F0C6
:1009000070474FF00000704712F1610F01D14202B1
:1009100002D14FF0FF3070474FF00000704700BF2A
:1009200003685A004CBF43F0004323F000431844CF
:10093000704700BF2DE9F84329B34F1E0446154602
:100940003E464FF0000808EB060101EBD17149105B
:1009500004EBC1094846FFF7E3FF0346C80008302F
:100960008F42204409D0AB4209D8FFF7D9FF0138A4
:10097000A8420AD201F10108E5E7AB4205D9884552
:1009800001D04E1EDFE74FF000094846BDE8F8836E
:10099000012807D0022807D0044B00280CBF1846B6
:1009A0000020704702487047024870475510000801
:1009B000591000085D10000830B5234B83B0044681
:1009C0008D1E3BB301A92846AFF30080E8B1019921
:1009D0002A46FFF7AFFF0146B8B1FFF7A1FF4B680A
:1009E000A064012B2BD0002B01F1040023DBFFF7C7
:1009F00097FF0023C4E913030368002B10DBFFF704
:100A00008FFF2061002003B030BD00230920236147
:100A100003B030BD0D490E48091AC9100191D7E73E
:100A2000C3F30360FFF7B4FF0028206114BF002068
:100A3000092003B030BD0123C4E91303DCE7002320
:100A400023610520DFE700BF00000000D86900082F
:100A5000B06800080368DA0710B5044606D49B079F
:100A600000F1480009D500F04BFC2368590709D56F
:100A70001A070ED5DB0613D510BD00F039FC23682C
:100A80005907F5D404F1D00000F042FC23681A079E
:100A9000F0D404F5A87000F043FC2368DB06EBD427
:100AA00004F5E870BDE8104000F07EBC0346006825
:100AB00000B11844704700BF09207047704700BF5D
:100AC00070B504460E46316C2046FFF775FF0546AB
:100AD00088B9336C63613246236921460120984707
:100AE0000828F0D0072806D12846316CFFF7E6FF2A
:100AF000301D00F0F1FB00F0CBFF00BF2DE9F04707
:100B00000D1D064614460FCDADF5727D0DF10C0C92
:100B1000ACE80F000FCDACE80F000FCDACE80F0034
:100B200095E80F0002ADF768D6F818808CE80F0042
:100B300000232B6021E02B6C73614FF4F072294687
:100B40007AA800F0ADFF33697AAA3146504698473B
:100B5000889BCDE9005821466B6481463346324676
:100B60000120B8470446E8B94FF4F0727AA9284644
:100B700000F096FFB9F1080F1BD1296C3046FFF742
:100B80001BFF09345FFA84FA81460028D3D0AB6B8F
:100B90004AF01001CDE9005832466B64012033461B
:100BA000B84708B14FF0090948460DF5727DBDE818
:100BB000F087B9F1070FF5D12046296CFFF77EFFCA
:100BC00003A800F089FB00BF406C7047F0B5CB6B09
:100BD0000B640E1D0F4605460FCEF9B001AC0FC4D5
:100BE0000FCE0FC40FCE0FC496E80F004FF0FF36A4
:100BF00084E80F00009606E02B696A46294698476C
:100C00000828044608D110992846FFF7D5FE002889
:100C1000F2D0092079B0F0BD6846FFF71BFF062C23
:100C2000F7D139462846FFF74BFF00BF30B4DD6BE4
:100C3000C160826119461D64002230BC5EE700BFBE
:100C400070B5C66843690B64AEB903690A460446C9
:100C50000D46014602209847072805D008280FD1E5
:100C600029462046FFF72CFF3046296CFFF726FF68
:100C7000281D00F031FB0122FFF740FF00F008FFC4
:100C800000F006FFC2681AB1CA6B0A64002235E799
:100C90009CE700BF704700BF836801460BB101208D
:100CA00018477047012912D009D873B90F2A0CD8F8
:100CB00000EB820218465368009A136070470339AC
:100CC000012994BF01200220704702207047084686
:100CD000704700BF10B584B0002303AC0A460094EF
:100CE0001946FFF7DFFF039804B010BD012912D0A9
:100CF00009D873B90F2A0CD800EB8200009A126849
:100D00004260184670470339012994BF0120022030
:100D10007047022070470846704700BF10B584B086
:100D2000002303AC039200940A461946FFF7DEFF46
:100D300004B010BDF0B5D36B1364151D8C46064688
:100D40000FCDADF50F7D17AC0FC40FCD0FC40FCD78
:100D50000FC495E80F004FF0FF3784E80F00654699
:100D6000169710E0FFF7DAFF294616A8B0470346AA
:100D700016AA6946082083B9049B984705280446AB
:100D80000CD0092809D026996846FFF715FE0346BE
:100D90006A460C2116A8002BE4D0092416A8FFF7F8
:100DA00059FE20460DF50F7DF0BD00BF2DE9F04F37
:100DB000CC6C89B00D4654F8041B0694174600F01D
:100DC00003081E46002B79D00B0CDAB209048DF80B
:100DD0001D30022304EB820405918DF81C302B6D2D
:100DE000B8F1020F08BFAC6B13F001030CD038460A
:100DF00005A900F073FB18B9082009B0BDE8F08F11
:100E0000092009B0BDE8F08FD4F800A0BAF1000FB6
:100E1000EDD0019300F008030293022E4AD0B4F8FB
:100E200000A0B4F802900434AA6C29F0010B0F2141
:100E300038469344FFF74EFF834539D82AF0010224
:100E40005A44824294BF002001204FEA490303F034
:100E500002030AF0010A43EA0A03012B49D0022BDC
:100E600032D0002BCCD1B8F1000F02D0002840F0D6
:100E7000CD800434D4F800A0BAF1000FCDD105A97B
:100E8000384600F02BFB0028BAD1019B002BB3D0D1
:100E90000F213846FFF71EFF0E2102463846FFF7A6
:100EA0003DFF38466A4A0F21FFF738FF0720A8E7C1
:100EB0000020CAE7D4F804900834B5E709020323F8
:100EC0000591ADF81C308AE7236823F0004BB8F198
:100ED000000F45D128B1029A002A5CD0BBF1000F67
:100EE00074D0002B00DA04340BF1010B04EB8B04FB
:100EF000C0E7B8F1000F19D1B0B1D4E90023991CB3
:100F00004FEAD2723FF47CAF05F1580101330491EE
:100F100000F09080201DFFF7C9FD04AB0146284674
:100F2000AFF3008000285BD10834A3E70D213846D9
:100F3000D5F82090FFF7CEFE8145F5D1AB6A9C42F3
:100F4000F2D12046FFF7ECFC0F2102463846FFF7AE
:100F5000E5FE38462A460021FFF7E0FE072050E76D
:100F60000D213846D5F82090FFF7B4FE814501D019
:100F70002368B6E7AB6A9C42FAD104220021C5E996
:100F80000B12A318C5F828B06B6323688B4259DB9A
:100F900001230193A8E705F15803CDF80C8004F173
:100FA000040AB04691461E460DE00496FFF77EFD0A
:100FB00004AB014600222846AFF3008009F1010985
:100FC0000AF1040AE8B9D9455046EED138460D2158
:100FD000FFF780FE049B2862C5E90934062010E76C
:100FE00081460D213846FFF775FEB9F1020F2862E0
:100FF00025D12B46049A43F82C2F6B62AC62062055
:10100000FFE646462368DDF80C806AE72046FFF7D6
:1010100087FC04340246AC6328461446AFF30080D4
:1010200000283FF4EDAE384622460F21FFF776FE4A
:101030000720E6E638460D21FFF74CFE2862049BA8
:101040006B62DBE70BF1010004EB80007AE700BF85
:10105000000000000023A9E60123A7E60223A5E67D
:101060002DE9F0430646C3B015461C46042900F29C
:10107000B980DFE801F09A53B7290300002C40F053
:10108000B180102A00F2AE800368D80600F1F38028
:1010900020AF384600F092F9B06B0023012404FA27
:1010A00003F22A42014604D051F8042B47F82320CA
:1010B00008460133042BF2D1B063384600F074F9CE
:1010C000002043B0BDE8F083032C40F08B8094B245
:1010D00004EB1243102B4FEA124500F283800368A1
:1010E0001F0700F1D08020AF384600F03BF907EB36
:1010F000C501B56B54B10B46E81A01EBC401E4001D
:101100001A5843F8042B8B42FAD125443846B5636C
:1011100000F006F9002043B0BDE8F083012C4FEA4F
:10112000124895B25AD0052C5CD108EB0509B9F1EB
:10113000200F57D8B8F10F0F77D9A946002D40F0EE
:101140008880B36B6DB320AF4FF0000907EBC80781
:10115000043F03EBC50553F8041B47F8041FAB42DB
:10116000F9D1B9F1000F0FD06F464146102938BFB1
:10117000102107EBC101843903EBC90553F8040BB7
:1011800041F8040FAB42F9D1012C00F08480B8F192
:101190000F0FB56345D9B9F1000F02D0684600F0D2
:1011A000B7F8002043B0BDE8F083DCB9876B234675
:1011B000012094B206F1040C00FA03F222423946EF
:1011C00004D051F8042B4CF823200F460133102B88
:1011D000F2D115F40050E4D1B76304E008EB050345
:1011E000102B03D9022043B0BDE8F083B8F10F0FF4
:1011F000F8D83368DA0706D5304623F0030340F801
:10120000483B00F079F820AF384600F075F8B36B32
:10121000002D99D11D460435B563384600F068F8B5
:10122000BFE720A800F06CF8B5E7B9F1100F40D97E
:10123000A9F110093368D90708D523F00103304616
:1012400043F0020340F8483B00F05EF8B9F1000FAC
:1012500032D033685A0720D4B8F10F0F25D96F4622
:101260003846C8F1100500F057F8002DB36B7FF732
:101270007CAF20AF6AE723F01003336006F5E87017
:1012800000F09CF804E723F00803036000F5A87061
:1012900000F068F827E720AFBDE7304623F00403ED
:1012A00040F8D03B00F038F8D6E720A800F02CF842
:1012B000D5E74FF00009BDE7B8F10F0F3FF641AF9A
:1012C00020AF384600F020F8B36B002D7FF43CAF20
:1012D000384600F015F864E700F1340191E8380071
:1012E0009C46A6464CF8045D90E8FF0FE54600BD1D
:1012F00090EC210B704700BF80EC210B704700BFC2
:1013000090EC200B704700BF80EC200B704700BFB3
:10131000D0EC200B704700BFC0EC200B704700BF23
:10132000F0EC0201F0EC0211F0EC0221F0EC0231E1
:10133000F0EC0241F0EC0251F0EC0261F0EC0271D1
:10134000F0EC0281F0EC0291F0EC02A1F0EC02B1C1
:10135000F0EC02C1F0EC02D1F0EC02E1F0EC02F1B1
:10136000704700BFE0EC0201E0EC0211E0EC02216A
:10137000E0EC0231E0EC0241E0EC0251E0EC026111
:10138000E0EC0271E0EC0281E0EC0291E0EC02A101
:10139000E0EC02B1E0EC02C1E0EC02D1E0EC02E1F1
:1013A000E0EC02F1704700BFB0FC0181B0FC01919C
:1013B000B0FC01A1B0FC01B1704700BFA0FC0181ED
:1013C000A0FC0191A0FC01A1A0FC01B1704700BFED
:1013D000EC4600B52DE900502DE9FF1F4FF000034A
:1013E0002DE90C0001A9FFF7F1FBDDF840E012B098
:1013F000704700BFEC4600B52DE900502DE9FF1FF6
:101400004FF000032DE90C0001A9FFF719FCDDF8EE
:1014100040E012B0704700BFEC4600B52DE9005027
:101420002DE9FF1F4FF000032DE90C0001A9FFF784
:1014300029FCDDF840E012B0704700BFEC4600B573
:101440002DE900502DE9FF1F4FF000032DE90C009E
:1014500001ABFFF7EBFBDDF840E012B0704700BFD7
:10146000EC4600B52DE900502DE9FF1F4FF00003B9
:101470002DE90C0001AAFFF75DFCDDF840E012B099
:10148000704700BF027A7AB9437AA3B14268013B40
:1014900010B4437213680321141D01721A024460D0
:1014A000026010BC180E70470368013A02721A02FB
:1014B0000260180E7047B020704700BF00B585B0BD
:1014C00003AA0023009219460C22FFF7EBFB0398B6
:1014D00005B05DF804FB00BFF0E700BF2DE9F04365
:1014E000054685B00E464FF000083046FFF7CAFFAC
:1014F000B028044600F0B280070620D500F0F003C3
:10150000802B4DD0902B36D0A02B60D0B02B74D038
:10151000C02B00F08B8000F0F803D02B0BD100F033
:101520000702013242F40022052301212846FFF779
:1015300097FD0028D9D0092005B0BDE8F0830DF152
:101540000C09002319468700CDF800900D2228468B
:10155000FFF7A8FBFFB2039BCDF8009004376006AD
:101560004CBFDF1BFF18002319460D2228460397A6
:10157000FFF7BCFBB9E700F00D030D2BDBD003AF89
:10158000002300F00F02194600972846FFF78AFB58
:101590000023009719460D222846FFF7A7FBA4E772
:1015A0003046FFF76FFF24022043B0F5004FC2D052
:1015B00004010023A2B219462846FFF751FD002876
:1015C000B9D114F4004F18BF4FF001088DE7C243A2
:1015D00002F007034FF47F621A41010702F47F62B1
:1015E0004FF0000348BF42F4804219462846FFF7F7
:1015F00037FD00283FF479AF9DE7B12833D0B228FA
:1016000000F08B80B32839D000F0FC03B42B92D0CB
:1016100000F007020132012342F400221946284655
:10162000FFF71EFD00283FF460AF84E7C62842D0D4
:10163000C7284CD000F0F803C02B5BD0C82860D07E
:10164000C9287FF478AF3046FFF71CFF020300F093
:101650000F0002F470220130024365E7B8F1000F79
:1016600018D0002068E73046FFF70CFF024600283C
:101670003FF461AF10F0F003D0D05CE73046FFF7E5
:1016800001FF010300F00F0001F47021421C01234F
:101690000A43C3E703AC43460E2241460094284662
:1016A000FFF700FB0094284643460F224146FFF710
:1016B0001DFB404640E73046FFF7E4FE010300F023
:1016C0000F0001F47021421C03230A43A6E73046B1
:1016D000FFF7D8FE024600283FF42DAF10F0F003CC
:1016E0007FF429AF04212846FFF7BAFC00283FF415
:1016F000FCAE20E700F00F020132032342F4202267
:101700008CE73046FFF7BEFE00F0F00200F00F035A
:101710001032013343EA023206E700230DF10C09CF
:101720000D221946CDF800902846FFF7BBFA304647
:10173000FFF7A8FE02064FF002070CD5039B00F04E
:101740007F00B840034430460393FFF79BFE030637
:1017500007F10707F2D4039BCDF8009000F07F0457
:1017600003F50172BC400023144419460D2228469B
:101770000394FFF7BBFAB8E610B5C26C84B05368A7
:1017800003248DF80C401B0202F108040846D279AC
:10179000019301A902948DF80D20FFF79FFE04B07C
:1017A00010BD00BF08B5FFF797FE806C08BD00BFF5
:1017B00008B5FFF791FEC06CC379023300EB8300DC
:1017C00008BD00BF30B400252A4610F8014B04F0D4
:1017D0007F0393401D43230602F10702F5D40D60F9
:1017E00030BC704730B400252A4610F8014B04F095
:1017F0007F0393401D43230602F10702F5D41F2AFD
:1018000006D8630604D54FF0FF3303FA02F21543FE
:101810000D6030BC704700BFFF2808B5034619D0E3
:1018200003F07002302A084616D005D8202A09D1C4
:10183000BDE8084004F029BD402A09D1BDE80840B0
:10184000FFF7B0BF02D813F0600F03D000F020F90B
:10185000502AFBD1002008BDBDE8084004F012BDAD
:10186000F0B5502883B015461E461ED000F00F0379
:1018700004460F460C2B38D8DFE803F0072D33075A
:101880001F373737372723071F00284650F8042B08
:1018900042B104F07003102B08BF2F463A442306D0
:1018A00048BF1268326003B0F0BDD01C20F00300C6
:1018B00050F8042B326003B0F0BD284650F8082BD6
:1018C000E6E7284630F9022BE2E701A92846FFF7B0
:1018D00089FF019ADCE701A92846FFF773FF019A07
:1018E000D6E7284630F8022BD2E700F0D1F800BF47
:1018F00070B50C460146204615461E46FFF78CFF84
:10190000334601462A462046BDE87040A8E700BF9E
:1019100070B50C4682B01546064660B3FFF742FF2D
:10192000034620462B6010F8011BFF2912D16B6083
:1019300010F8013B2B75FF2B16D10023EB6001A99A
:1019400010F8013B6B75FFF73DFF019B03442B61D2
:1019500002B070BD02462B1D3046FFF7C9FF10F8DC
:10196000013B2B75FF2BE8D001A9FFF72BFF019B53
:101970000344EB60E4E70346D3E700BF10B584B04F
:10198000002303AC039200940A461946FFF7AEF910
:1019900004B010BD00B585B003AA0023009219461B
:1019A0000F22FFF77FF9039805B05DF804FB00BF35
:1019B00070B500F0030001288CB00D4614460AD023
:1019C00021462846FFF7D8FE10B908200CB070BD9C
:1019D00009200CB070BD0A4620460C21FFF7CEFF4F
:1019E0002046FFF7E5FE01460028E9D006AA20467A
:1019F000FFF78EFF024620460192FFF7CBFF0A9BBE
:101A0000019A20F001069A4206F1FF3603D3D7E788
:101A10000A9B8342D4D99DF82D1002AB0020FFF71A
:101A200067FF9DF82D10024603AB0020FFF760FF13
:101A300004AB02469DF82D100020FFF759FF05A9C1
:101A4000FFF7C0FE029A069B1344B3420246B7D882
:101A500003990B44B342DBD9049B002BB0D0079E03
:101A60009E19ADD02A4600212046FFF787FF0022AD
:101A700001212046FFF782FF2046FFF78BFF00F091
:101A80000102324320460F21FFF778FF07209DE730
:101A900008B5062000F07AF9012000F0DFFD00BF54
:101AA000844641EA000313F003036DD1403A41D369
:101AB00051F8043B40F8043B51F8043B40F8043B28
:101AC00051F8043B40F8043B51F8043B40F8043B18
:101AD00051F8043B40F8043B51F8043B40F8043B08
:101AE00051F8043B40F8043B51F8043B40F8043BF8
:101AF00051F8043B40F8043B51F8043B40F8043BE8
:101B000051F8043B40F8043B51F8043B40F8043BD7
:101B100051F8043B40F8043B51F8043B40F8043BC7
:101B200051F8043B40F8043B51F8043B40F8043BB7
:101B3000403ABDD2303211D351F8043B40F8043B57
:101B400051F8043B40F8043B51F8043B40F8043B97
:101B500051F8043B40F8043B103AEDD20C3205D367
:101B600051F8043B40F8043B043AF9D2043208D05F
:101B7000D2071CBF11F8013B00F8013B01D30B88D1
:101B800003806046704700BF082A13D38B078DD0AF
:101B900010F003038AD0C3F10403D21ADB071CBF81
:101BA00011F8013B00F8013B80D331F8023B20F8EB
:101BB000023B7BE7043AD9D3013A11F8013B00F824
:101BC000013BF9D20B7803704B7843708B788370AC
:101BD00060467047F0B4860746D0541E002A3CD0B9
:101BE000CAB2034602E014F1FF3436D303F8012BE6
:101BF0009D07F8D1032C29D9CDB245EA05250F2C34
:101C000045EA054533D9A4F11006360903F120074A
:101C100007EB061703F1100242E9045542E90255A9
:101C20001032BA42F8D1721C14F00C0F03EB0212FE
:101C300004F00F0613D0331F23F0030304331344BF
:101C400042F8045B9342FBD106F003042CB1C9B205
:101C50001C4403F8011B9C42FBD1F0BC7047344686
:101C60001346002CF3D1F8E714460346C2E71A46A0
:101C70002646E0E710B58021044600F0BFF8C4F81E
:101C8000DC0240B1031F00227C3043F8042F834262
:101C9000FBD1002010BD4FF0FF3010BDD0F8DC327A
:101CA0000BB100207047E5E71F2970B5054609D83C
:101CB000D0F8DC3216460C464BB153F8240043F8FA
:101CC000246070BD162202604FF0FF3070BDFFF738
:101CD000D1FF10B9D5F8DC32EFE74FF0FF3070BD1F
:101CE0001F2938B522D8D0F8DC2205460C466AB147
:101CF00052F8213053B1012B16D0591C10D00025B9
:101D0000204642F824509847284638BD284600F01F
:101D100073F8224601462846BDE8384000F058B81E
:101D200016230360012038BD002038BD1623036050
:101D30004FF0FF3038BD00BF1F2923D838B5D0F889
:101D4000DC3205460C4683B153F8242003EB8403B0
:101D50004AB1511C11D0012A0DD0002520461D602A
:101D60009047284638BD012038BDFFF783FF30B9C2
:101D7000D5F8DC32E8E7032038BD022038BD4FF04B
:101D8000FF3038BD4FF0FF30704700BF024B0146B7
:101D90001868FFF7A5BF00BF00080020024B0A46E5
:101DA00001461868FFF780BF00080020034B186841
:101DB000D0F8DC320BB1002070475BE70008002050
:101DC000024B01461868FFF7B7BF00BF00080020AC
:101DD00038B50B46074C05461146184600232360CC
:101DE00000F026FC431C00D038BD2368002BFBD03C
:101DF0002B6038BDD814002000F012BC2DE9F04F44
:101E000001F10B05162D83B0064623D8102900F2E8
:101E1000B98000F0A5FA102518230220CD4F3B44CD
:101E2000A3F108025C68944200F0B980636823F073
:101E300003032344D4E902515A68E96042F00102E5
:101E400030468D605A6000F08DFA0834204603B0A9
:101E5000BDE8F08F35F0070500F19480A94200F24B
:101E6000918000F07DFAB5F5FC7FC0F09D816B0A92
:101E700000F08F80042B00F27381AB0903F139006D
:101E800003F1380CC300B34F3B44A3F108015C6875
:101E9000A14206D10CE0002A80F22B81E468A14225
:101EA00006D0636823F003035A1B0F2AF3DD604654
:101EB0003C69DFF8A4C264457CD0636823F0030367
:101EC0005A1B0F2A00F37E81002AC7E904CC80F256
:101ED0006F81B3F5007F80F01A81DB08591C7A68A6
:101EE00057F83180C4F808804FF0010E9B100EFAAD
:101EF00003F307EBC10E1343AEF10802E2607B600F
:101F000047F83140C8F80C408210012494409C42AC
:101F100056D81C4206D120F0030064001C4200F198
:101F20000400FAD007EBC009CE468046DEF80C303C
:101F30009E4507D120E1002A80F22781DB689E457B
:101F400000F01A81596821F003014A1B0F2AF2DDC3
:101F5000D3E9028E5C1945F001055D6042F0010590
:101F6000C8F80CE03046CEF80880C7E90444C4E95C
:101F700002CC65605A50009300F0F4F9009B03F125
:101F8000080402E00C2333600024204603B0BDE8BF
:101F9000F08F4FF4007340204FF03F0C73E7DC6884
:101FA000A34208BF02307FF441AF3C69DFF8A8C10B
:101FB000644582D17B688210012494409C42A8D958
:101FC000BC68636823F00308A84503D3A8EB0503A6
:101FD0000F2B7EDCDFF88491D7F80824D9F8003085
:101FE000013204EB080A2B4400F0378103F58053DB
:101FF0000F3323F47F6B2BF00F0B5946304600F064
:10200000B3F9411C024600F0F780824500F2F280ED
:10201000D9F804105944C9F804100B4600F0538154
:10202000D7F8081401311BBFA2EB0A0A5344C7F8C2
:102030000824C9F8043012F0070300F01A81C3F134
:1020400008010A44C3F5805193440831A1EB0B0108
:10205000C1F30B0A514630460193009200F084F917
:10206000421CDDE9002300F05381831A03EB0A0BC5
:10207000D9F80410BA604BF001035144BC425360DC
:10208000C9F8041000F02B81B8F10F0F40F229813C
:102090006368A8F10C0020F0070003F0010304EBD3
:1020A000000C03434FF0050E0F286360CCE901EEEE
:1020B00000F2358153681446D9F82C208A42D9F8A9
:1020C000302038BFC9F82C108A4238BFC9F8301008
:1020D00094E0621943F0010345F001056560304664
:1020E000BA60536000F03EF90834204603B0BDE802
:1020F000F08F2344E1685A68A56842F00102E96064
:1021000030468D605A6000F02DF908343DE75A0AD8
:10211000042A69D9142A00F2BE8002F15C01C900C8
:102120005B3207EB010E7958AEF1080E8E4500F0D8
:1021300097804A6822F003029A4202D989688E4544
:10214000F7D1D1F80CE07B68C4E9021ECEF8084054
:10215000CC60D9E6300C0020380C0020F0100020B4
:10216000142B59D9542B00F29E802B0B03F16F00D6
:1021700003F16E0CC30086E608F1010818F0030FA6
:102180000EF1080E7FF4D2AE51E019441C464A68A5
:10219000DB6854F8085F42F001024A603046EB60A9
:1021A0009D6000F0DFF8F0E6E80805F1080335E689
:1021B000234430465A6842F001025A60083400F065
:1021C000D1F8E2E6611945F0010E42F00105C4F8CC
:1021D00004E03046C7E90411C1E902CC4D60E25089
:1021E00000F0C0F80834D0E69A0902F13901C900BC
:1021F000383296E7BC4260D0BC68636823F0030BBA
:10220000AB45ABEB050302D30F2B3FF762AF304674
:1022100000F0A8F80024B8E603F15C0003F15B0CC1
:10222000C30030E659F808394B4540F0968010F06D
:10223000030F00F1FF30F5D17B6823EA04037B60D4
:1022400064009C423FF6BCAE1CB9B9E6640008F1DC
:1022500004081C42FAD0404664E603F1100BCCE6B9
:102260007B6892104FF0010808FA02F213437B607A
:102270006AE702EB0B014942C1F30B0A51463046B3
:102280000193009200F070F8431CDDE900237FF415
:10229000ECAE9A46ECE6542A26D81A0B02F16F01EE
:1022A000C9006E323DE7B3F5AA7F26D8EB0B03F1E8
:1022B000780003F1770CC300E5E5D9F804305B44FE
:1022C000C9F80430ACE6CAF30B0000287FF4A8AECE
:1022D00008EB0B03BC6843F001036360ECE61446B3
:1022E000EAE60123536092E7B2F5AA7F21D8DA0B20
:1022F00002F17801C900773213E740F25452934259
:1023000021D8AB0C03F17D0003F17C0CC300BAE5CE
:10231000083B9B44ABEB020B4FF0000AA8E604F12C
:102320000801304600F082F8BC68D9F804106368F0
:10233000C2E640F254518A420BD89A0C02F17D0158
:10234000C9007C32EDE64FF47E737F204FF07E0CA7
:1023500099E54FF47E717E22E3E67B6870E700BF6B
:10236000704700BF704700BF38B5074C00230546D3
:102370000846236000F064F9431C00D038BD236890
:10238000002BFBD02B6038BDD8140020F8B5244FAB
:102390000C460646FFF7E4FFBB685D68C4F57E6146
:1023A0000F3125F00305294421F47F6121F00F014D
:1023B000A1F58054B4F5805F07DB00213046FFF7BC
:1023C000D3FFBB682B44984204D03046FFF7CAFFC6
:1023D0000020F8BD61423046FFF7C6FF01300DD046
:1023E000104BBA6819682D1B45F001053046091BD2
:1023F00055601960FFF7B6FF0120F8BD0021304697
:10240000FFF7B2FFBA68831A0F2BDEDD064C0549D1
:10241000246843F00103001B53600860D5E700BF48
:10242000300C0020F41000203810002000295ED06D
:10243000F8B50F460646FFF793FF57F804CC754DE5
:102440002CF00103A7F10800C218A9685468914252
:1024500024F0030400F084801CF0010F546002EBB0
:10246000040133D157F808EC4968A0EB0E0005F1E0
:10247000080C87686745734401F0010160D0D0F80B
:102480000CE0C7F80CE0CEF80870002900F08D8051
:1024900043F0010141601360B3F5007F30D2DB08E7
:1024A000591C6C689A1001239340234305EBC10229
:1024B00055F831406B60083AC0E9024245F83100F6
:1024C000E0603046BDE8F840FFF74CBF4968C907F7
:1024D0000ED4234405F1080C9168614543F00104D2
:1024E0006BD0D268CA6091604460C350D4E7704733
:1024F00043F00101B3F5007F47F8041C1360CED30D
:102500005A0A042A46D89A0902F13907FF0002F153
:102510003801EC19EA59083C944255D0516821F031
:102520000301994202D992689442F7D1D468C0E974
:102530000224A060D0603046BDE8F840FFF712BF2B
:10254000002962D1D2E90221234443F00104D16081
:102550008A604460C3503046BDE8F840FFF702BFD0
:102560001CF0010F234407D157F8082C801A13449C
:10257000D0E90212CA609160274A126843F0010153
:102580009A424160A8609CD8244B30461968FFF7F6
:10259000FDFE96E7142A0AD9542A1DD81A0B02F117
:1025A0006F07FF0002F16E01B3E7234494E702F1E5
:1025B0005C07FF0002F15B01ABE7C5E90400C0E97D
:1025C00002CC4460C3507CE76B688910012707FA8E
:1025D00001F119436960AAE7B2F5AA7F06D8DA0BC0
:1025E00002F17807FF0002F1770192E740F25451BF
:1025F0008A4206D89A0C02F17D07FF0002F17C01A5
:1026000087E74FF47E777E2183E743F00101416045
:10261000136056E7300C00203C100020F010002022
:10262000024B58221A604FF0FF307047D814002038
:10263000024B58221A604FF0FF307047D814002028
:10264000044A05491368002B08BF0B461844106064
:102650001846704724110020DC140020FEE700BF5C
:10266000F0B42F4C0346012220689A40024218BF62
:10267000002001D0F0BC704704EBC3051043294E85
:10268000206012F0FF0F284CAC6003EB4300696040
:1026900006EB80004FEA430436D1244A116B41F423
:1026A00080011163156DE11845F4800556F821107D
:1026B0001565126D0A6822F01F020A600A6812F09E
:1026C0000102FBD1234406EB83033D25DC7A5E7ACD
:1026D0005F6863099B00B54003F1604304F1604605
:1026E0003D6003F56143012506F5614604F01F04D2
:1026F0000A6005FA04F4A02221254D6186F8002322
:10270000C3F880411C60B5E7084A116B41F4001121
:102710001163116D41F400111165126DBDE700BF29
:102720004C14002000670008A4110020003802406B
:102730002DE9F0410126B64600234FF00F0C032788
:1027400007E0046A24EA02020262490827D0B600C0
:10275000013303F007025C00920011F0010F0EFA42
:1027600003F807FA04F40CFA02F2EED0456825EA01
:1027700008054560856825EA04058560C56825EA81
:102780000405C560056825EA04043443072B04608A
:10279000D7D9446A490824EA02024262D7D1BDE887
:1027A000F08100BF000000000000000000000000F9
:1027B000504B514A2DE9F0410025C3E900551E4612
:1027C00019464FF0020C1378C469C3EBC30704EB3E
:1027D00047045F1E247B01F8014B082F18D8DFE85F
:1027E00007F06B610541051D05244B00D2E9013757
:1027F00003EBC30E036A9E444FEA17489EF8083065
:102800004F711C433F0A01F8014C81F80180CF70E1
:1028100010320DB1BDE8F0810125D4E753684B714A
:102820001C0C1B0A4C70CB70F2E7D2E9013703EBAA
:10283000830E436A734407EBC70E1B79D76844EADB
:10284000C304E4B201F8014C036A73444FEA174E23
:102850001B7A4F711C433F0A01F8014C81F801E0DB
:10286000CF70D5E75768036A07EBC7071F443B7A69
:102870001C4301F8014CCBE7D2E9013703EB830E8F
:10288000436A9E4407EBC7079EF8043044EAC3043A
:10289000E4B201F8014C036A1F443B7A1C4301F87F
:1028A000014CB5E75768836907EB870713F82730B2
:1028B0001C4301F8014CABE7576807EB870E8769AB
:1028C00017F82E703C4301F8014C846904EB8E0428
:1028D000A77B002F9CD0D2F80880FC1A1CFB035E5B
:1028E0000133E400DBB228FA04F49F4206F80E40FC
:1028F000F3D28DE700120020D41100200000000068
:10290000B0F5001F07D310F5001F02D300F58000BB
:1029100070474FF480007047000000000000000086
:1029200030B4202383F311880B4CD4E9003549429D
:10293000281A0840821A9A4207D3954205D362604A
:10294000002383F3118830BC70470020002383F3F9
:10295000118830BC704700BF281400200000000020
:10296000024AD36843F0C003D3607047004400407C
:1029700030B40E490E4A0B784BB9C2E90133C2E9B3
:10298000053301241370D3601374D3610C70437D3D
:102990001C010D25155502EB03130021C3E901119C
:1029A000D96030BC80F86010704700BF081200206A
:1029B000D411002000000000000000000000000012
:1029C000F0B4104D104C2B78A2F10102B2FA82F251
:1029D00052094BB9C4E90133C4E905330126237018
:1029E000E3602374E3612E70437D1E0104EB031347
:1029F00000250927A755DD60C3E9011280F8605062
:102A0000F0BC704708120020D41100200000000024
:102A100070B4104C104A2378A1F10101B1FA81F190
:102A200049094BB9C2E90133C2E9053301251370E5
:102A3000D3601374D3612570437D1D010426565560
:102A400002EB03130024C3E90114DC6080F860404A
:102A500070BC704708120020D41100200000000054
:102A600030B40E490E4A0B784BB9C2E90133C2E9C2
:102A7000053301241370D3601374D3610C70437D4C
:102A80001C011125155502EB03130021C3E90111A7
:102A9000D96030BC80F86010704700BF0812002079
:102AA000D411002000000000000000000000000021
:102AB00030B40E490E4A0B784BB9C2E90133C2E972
:102AC000053301241370D3601374D3610C70437DFC
:102AD0001C011025155502EB03130021C3E9011158
:102AE000D96030BC80F86010704700BF0812002029
:102AF000D4110020000000000000000000000000D1
:102B000030B40E490E4A0B784BB9C2E90133C2E921
:102B1000053301241370D3601374D3610C70437DAB
:102B20001C010F25155502EB03130021C3E9011108
:102B3000D96030BC80F86010704700BF08120020D8
:102B4000D411002000000000000000000000000080
:102B500030B40E490E4A0B784BB9C2E90133C2E9D1
:102B6000053301241370D3601374D3610C70437D5B
:102B70001C010E25155502EB03130021C3E90111B9
:102B8000D96030BC80F86010704700BF0812002088
:102B9000D411002000000000000000000000000030
:102BA000F0B4104D104C2B78A1F10101B1FA81F174
:102BB00049094BB9C4E90133C4E90533012623703F
:102BC000E3602374E3612E70437D1E0104EB031365
:102BD00000250527A755DD60C3E9011280F8605084
:102BE000F0BC704708120020D41100200000000043
:102BF000F8B5064618460D46A2F10104FDF72CFC77
:102C0000B4FA84F4144964090746FDF725FE28B197
:102C100012493846FDF72CFDFDF762FE1049114AB6
:102C20000B784BB9C2E90133C2E9053301271370B0
:102C3000D3601374D3610F70737D1F014FF0080CC4
:102C400002EB031302F807C00021C3E90154D86066
:102C500086F86010F8BD00BF1B2474462A24743C1B
:102C600008120020D4110020000000000000000025
:102C700030B40E490E4A0B784BB9C2E90133C2E9B0
:102C8000053301241370D3601374D3610C70437D3A
:102C90001C010B25155502EB03130021C3E901119B
:102CA000D96030BC80F86010704700BF0812002067
:102CB000D41100200000000000000000000000000F
:102CC00030B40E490E4A0B784BB9C2E90133C2E960
:102CD000053301241370D3601374D3610C70437DEA
:102CE0001C010A25155502EB03130021C3E901114C
:102CF000D96030BC80F86010704700BF0812002017
:102D0000D4110020000000000000000000000000BE
:102D1000F8B504460846FFF7F3FD104D10492B782F
:102D2000A2F10102B2FA82F252094BB9C1E90133B0
:102D3000C1E9053301260B70CB600B74CB612E709B
:102D4000637D1E01072701EB03138F550025C3E99F
:102D50000120DD6084F86050F8BD00BF081200203B
:102D6000D41100200000000000000000000000005E
:102D700070B5104C034608461946FFF7C1FD23788D
:102D80000D4A4BB9C2E90133C2E90533012513707D
:102D9000D3601374D36125704B7D1D01062602EBB1
:102DA000031356550024C3E90104DC6081F8604038
:102DB00070BD00BF08120020D411002000000000E8
:102DC00030B40E490E4A0B784BB9C2E90133C2E95F
:102DD000053301241370D3601374D3610C70437DE9
:102DE0001C010C25155502EB03130021C3E9011149
:102DF000D96030BC80F86010704700BF0812002016
:102E0000D4110020000000000000000000000000BD
:102E10000B490B781BB1082380F860307047094AD2
:102E200010B4012413701374C2E90133C2E90533ED
:102E3000D360D3610C70082310BC80F860307047F9
:102E400008120020D4110020000000000000000043
:102E500030B40E490E4A0B784BB9C2E90133C2E9CE
:102E6000053301241370D3601374D3610C70437D58
:102E70001C011225155502EB03130021C3E90111B2
:102E8000D96030BC80F86010704700BF0812002085
:102E9000D41100200000000000000000000000002D
:102EA000002070470000000000000000000000004B
:102EB00030B4437DD20019440020012311F813409F
:102EC000C3EB437502EBC5050133AC40042B40EA6C
:102ED0000400F3D130BC7047000000000000000087
:102EE00070B40D4D0D4C2B784BB9C4E90133C4E9D6
:102EF000053301262370E3602374E3612E70437D64
:102F00001D0104EB031303260020665570BCC3E9C2
:102F10000112D860704700BF08120020D4110020B1
:102F200070B504461046A1F10105FDF795FAB5FA12
:102F300085F50B496D090646FDF78EFC70B1094910
:102F40003046FDF795FBFDF7CBFC024629462046AF
:102F5000FFF7C6FF002384F8603070BD0246F5E736
:102F60001B2474462A24743C00000000000000006A
:102F700030B40D4C0D4A23784BB9C2E90133C2E994
:102F8000053301251370D3601374D3612570437D1D
:102F90001C010225155502EB0313002030BCC3E9C8
:102FA0000110D860704700BF08120020D411002023
:102FB00010B505210446FFF7DBFF072384F86030D6
:102FC00010BD00BF00000000000000000000000075
:102FD00010B504210446FFF7CBFF062384F86030C8
:102FE00010BD00BF00000000000000000000000055
:102FF00010B507210446FFF7BBFF052384F86030B6
:1030000010BD00BF00000000000000000000000034
:1030100010B506210446FFF7ABFF042384F86030A7
:1030200010BD00BF00000000000000000000000014
:1030300010B503210446FFF79BFF032384F860309B
:1030400010BD00BF000000000000000000000000F4
:1030500010B502210446FFF78BFF022384F860308D
:1030600010BD00BF000000000000000000000000D4
:1030700010B500210446FFF77BFF012384F8603080
:1030800010BD00BF000000000000000000000000B4
:1030900010B5C9B20446FFF76BFF002384F8603017
:1030A00010BD00BF00000000000000000000000094
:1030B00070B40D4D0D4C2B784BB9C4E90133C4E904
:1030C000053301262370E3602374E3612E70437D92
:1030D0001D0104EB031301260020665570BCC3E9F3
:1030E0000112D860704700BF08120020D4110020E0
:1030F00010B504460846FFF703FC022102462046AD
:10310000FFF7D6FF002384F8603010BD00000000F8
:1031100038B504460846FDF79FF90B490546FDF70B
:103120009BFB70B109492846FDF7A2FAFDF7D8FBD1
:1031300082B205212046FFF7BBFF002384F86030F0
:1031400038BD0246F5E700BF71C66847FED4684146
:1031500038B504460846FDF77FF90B490546FDF7EB
:103160007BFB70B109492846FDF782FAFDF7B8FBF1
:1031700082B204212046FFF79BFF002384F86030D1
:1031800038BD0246F5E700BF71C66847FED4684106
:1031900038B504460846FDF75FF90B490546FDF7CB
:1031A0005BFB70B109492846FDF762FAFDF798FB11
:1031B00082B207212046FFF77BFF002384F86030AE
:1031C00038BD0246F5E700BFBF1474440124743EC5
:1031D00038B504460846FDF73FF90B490546FDF7AB
:1031E0003BFB70B109492846FDF742FAFDF778FB31
:1031F00082B206212046FFF75BFF002384F860308F
:1032000038BD0246F5E700BF02E773460B24744160
:1032100038B504460846FDF71FF90B490546FDF78A
:103220001BFB70B109492846FDF722FAFDF758FB50
:10323000024603212046FFF73BFF002384F860305D
:1032400038BD0246F5E700BF1B2474462A24743CAF
:1032500010B5002204460221FFF72AFF092384F853
:10326000603010BD00000000000000000000000001
:1032700010B5C9B20446FFF71BFF002384F8603085
:1032800010BD00BF000000000000000000000000B2
:10329000202383F311880D4B5B6813F4006302D184
:1032A00083F311887047EFF30983203B4FF080725E
:1032B000DA6183F30988064A11689269896892681D
:1032C00091428CBF034A044A9A61704700ED00E0C6
:1032D0008C120020E3020008E60200080000000053
:1032E000084A10B4D2E900344942201A08409842F2
:1032F00004D3844202D310BC50607047002010BC3D
:10330000704700BF281400200000000000000000EB
:103310000E4A0F4B52685B6F816830B4D31AD0E904
:103320000445C2685B1A01324168C260E418026851
:10333000836045F100058B4288BF43609342C0E93A
:10334000044538BF036030BC704700BF001000E088
:103350008C120020000000000000000000000000AF
:10336000014B5B6883607047001000E000000000C4
:10337000202383F3118890F82030072B0DD8DFE845
:1033800003F0270C0C2308040C08426A93680133ED
:103390009360D0E9003213605A6010B400224FF0FD
:1033A000FF3481680C4B446280F820201B689A68C7
:1033B0008A42FBD25A680021C0E90032106058608E
:1033C00081F3118810BC7047436A00221A60E4E759
:1033D000002383F3118870478C1200200000000046
:1033E00000228168064B80F820201B689A688A4278
:1033F000FBD25A68C0E9003210605860704700BFC5
:103400008C120020000000000000000000000000FE
:10341000F8B5164F57F8044FBC4220D00546002699
:1034200004E00B2A1CD02468BC4218D0E3682B436C
:10343000E36015B123691D42F5D0D4E90103416B66
:1034400090F820200B430A2A4363EAD1426A1342D0
:10345000E9D04662FFF7C4FF2468BC42E6D1F8BD5C
:10346000426A32EA0303DED1F3E700BF28110020ED
:10347000FEE700BF000000000000000000000000A8
:1034800011F00C0F00D1704772B6024B024ADA629B
:10349000FEE700BF8C1200209062000800000000D0
:1034A00011F00C0F38B54FD10D4641680B7804462A
:1034B000002B33D1456A2A68136823F01F03136079
:1034C0001368D807FCD46A7A206A6D683D2393405C
:1034D00002682B60136823F01F0313601368DB0777
:1034E000FCD4457A4A6841683D23AB400B60002A12
:1034F0002FD004232370204690472378042B28D014
:10350000202383F31188A06820B10023A3604362C5
:10351000FFF766FF002383F3118838BDEB0603D560
:103520004B68002BF9D09847AD06F6D563685B6809
:10353000002BF2D004222270204698472378042BD7
:10354000EBD10323237038BD72B6064B064ADA620C
:10355000FEE702232370202383F31188A06800284C
:10356000D3D1D7E78C120020906200080000000041
:103570000020704700000000000000000000000074
:10358000F8B5174A174F184D1378184E184986602A
:103590000446C0E90075A5F2FD75E1602561154896
:1035A0001549164DA061E161256204F1280100254D
:1035B00063751348134E60620133E162137084F83F
:1035C00060502946202210483570FEF703FB0F4B50
:1035D0000F4AC3E90055156055602046F8BD00BF8D
:1035E000F4110020E46500080108024000080240D0
:1035F00005040240BC620008C4640008B06400080E
:10360000B062000808120020D4110020F811002038
:103610000012002000000000000000000000000078
:10362000084B99691A6810B481F820001068186076
:103630000124436082F8204010BC9A611046FCF7D8
:103640003FBE00BF8C120020000000000000000000
:10365000F0B54B1C87B049D03F4C404FA369059350
:103660002646022956F81C3F05464FF0804038BFD9
:103670000221B342426A04975BD0A76AD21B891821
:103680002ED398681B689A68091A914204D91B685E
:10369000891A9A688A42FAD35A68029201AF019352
:1036A00017605F6003919A68511A4FF0FF3299607A
:1036B00062622846FFF7B4FF049B6BB1E369BB422B
:1036C0001BD0DDE901321360019BB3425A6003D085
:1036D0009A6803990A449A60A369586A07B0F0BDD2
:1036E0009A689142D1D20F444763CEE71A4CFFF754
:1036F00097FFA369586A07B0F0BD019BE361002200
:10370000B3425E60049222D09A680398A16A024490
:103710004FF080409A60436A581A8242DCD9CB1A33
:103720001344012B98BF821C4FF080430A445A6314
:10373000D2E78B1801AFA262CDE90166C4E9077731
:1037400003910022436302230261C360B1E74FF09B
:103750008043DA60C0E700BF8C120020713300089C
:1037600061B1084A10B4926944680346C2E9003462
:103770000420226010BC5A60FFF76ABF4FF0FF3090
:10378000704700BF8C120020000000000000000005
:10379000F8B504460F461646202383F3118803E04C
:1037A000FFF7DEFF002818DBA56831462046002D14
:1037B000F6D06269A368511C013B6161A360177078
:1037C000D4E904329A4224BFE3686361E36903B138
:1037D0009847002080F31188F8BD85F31188F8BD63
:1037E0003030FFF7D5BF00BF000000000000000030
:1037F00030304FF0FF32FFF7CBBF00BF00000000BA
:1038000070B5202305460E4683F3118803E0FFF7C9
:10381000A7FF00281ADBAC6831462846002CF6D0FA
:10382000A969AB6828694A1C013B8242AB60AA6166
:1038300028BFEB680C7828BFAB61EB690BB1284659
:103840009847002383F31188204670BD84F31188C4
:1038500070BD00BF0000000000000000000000007C
:103860000C30FFF7CDBF00BF0000000000000000DB
:103870000C304FF0FF31FFF7C3BF00BF0000000066
:1038800008B50146202383F311880820FFF7E0FEE6
:10389000002383F3118808BD000000000000000031
:1038A00070B52E4B044680689D6930B3AA68836862
:1038B000934207D290F820308260062B35D0072B38
:1038C00020D09BB1234603E09968AA68914202D3B5
:1038D0001B689C42F8D15A680620C5E90032156081
:1038E0005D606C62BDE87040FFF79ABED0E90032BF
:1038F00013605A60FFF774FDE4E7AB6BC4E9025351
:10390000AC6370BDD0E90031466A0B605960334644
:1039100002E099688A4202D81B689E42F9D15A682F
:10392000C0E9003210605860CCE7D0E90031466A47
:103930000B605960334602E099688A4202D81B68DE
:103940009E42F9D15A68C0E9003210605860B068F0
:10395000AA6883689342ADD3B4E700BF8C120020FD
:103960002DE9F04F85B0CDE90232C7694FF020094B
:1039700089F31188A2B3DDF80CB004460E464FF06F
:10398000000AA2689345D4E904208CBFA5685D466F
:10399000A2EB0008A84544D829D2A5EB080342466B
:1039A00031460193FEF77CF806EB0801DDF8048050
:1039B000E0684246FEF774F8A268E1684346CB1817
:1039C000521B6361A2600FB12046B8478AF3118889
:1039D000ABEB050B2E4489F31188BBF1000FD0D15E
:1039E0000398002383F3118805B0BDE8F08F2A46C1
:1039F0003146FEF755F8E2686261A268521BA26088
:103A0000002DE0D102992046FFF7AAFE0028B8D089
:103A1000039BA3EB0B00002383F3118805B0BDE8E3
:103A2000F08F2A463146FEF73BF862692A4462610C
:103A3000E3E700BF000000000000000000000000FD
:103A40003030FFF78DBF00BF000000000000000015
:103A500030304FF0FF33FFF783BF00BF000000009E
:103A60002DE9F04F85B0CDE90232C7694FF020094A
:103A700089F31188002A34D0DDF80CB004460E46D4
:103A80004FF0000AA268A169934522698CBFA5681E
:103A90005D46A2EB0108A84544D829D2A5EB08034E
:103AA000424630460193FDF7FBFF06EB0800DDF8C8
:103AB0000480E1684246FDF7F3FFA268E1684346EF
:103AC000CB18521BA361A2600FB12046B8478AF3FE
:103AD0001188ABEB050B2E4489F31188BBF1000F65
:103AE000D0D10398002383F3118805B0BDE8F08F8F
:103AF0002A463046FDF7D4FFE268A261A268521B55
:103B0000A260002DE0D102992046FFF729FE00288F
:103B1000B8D0039BA3EB0B00002383F3118805B0FF
:103B2000BDE8F08F2A463046FDF7BAFFA2692A4465
:103B3000A261E3E7000000000000000000000000B8
:103B40000C30FFF78DBF00BF000000000000000038
:103B50000C304FF0FF33FFF783BF00BF00000000C1
:103B6000EFF30983203383F30988002383F311885B
:103B7000704700BF000000000000000000000000CF
:103B800038B52022034682F311880F4A9469A06A4F
:103B9000636204F12805A84206D00368A362FFF718
:103BA0001FFCA06AA842F8D194F822303BB994F8DF
:103BB00021309B0703D1D4E9043213615A61BDE877
:103BC00038400F20FFF72CBD8C12002000000000B1
:103BD0000D4A10689169036830B401245A600025C9
:103BE00080F820408C681360906181F8205000E0DC
:103BF0001B689A689442FBD35A6830BCC1E9003212
:103C000011605960FCF75CBB8C12002000000000C2
:103C100070B51B4D0146AE69202383F311880068FF
:103C2000CB68B363884225D0F46B4BB11A689342DA
:103C300003D09268944238BF1446DB68002BF5D15C
:103C40000368826BB4600B605960C1E90202816352
:103C5000FFF7C6FB2A68AB6992689B689A4203D853
:103C6000002383F3118870BDFFF7B2FF002383F3B5
:103C7000118870BD00238360002383F3118870BD19
:103C80008C12002000000000000000000000000076
:103C9000F8B5C61D0446F608202383F31188334D7A
:103CA00005F10C00FFF7FCFD002383F311886A681F
:103CB000DAB1281D00E01A46D2F804C002F10F0361
:103CC00023F007030CF1010102EBC101A3F1080786
:103CD0008F42A1EB03034FEAE30E02D2B6EBE30FF0
:103CE00012D913681046002BE5D12148FFF790FF49
:103CF0002B68A3B30822F00011469847064608B186
:103D000040E902543046F8BDBA4216D3664528D081
:103D1000771C02EBC70606F10803CB1ADB1011680B
:103D200042F837107360174606603E467C601048C4
:103D300046F8085BFFF76CFFE4E702F10803FB1AA3
:103D4000DB1076455360F0D2701CF34307EBC001E3
:103D5000166873444B6047F830601160E5E71E4613
:103D6000D0E7136803601746DFE700BF3014002078
:103D70003C140020000000000000000000000000D3
:103D80002DE9F04F724B734F734CDFF8E88100253B
:103D900083B081461D7007F1080B04F10C0A202640
:103DA00086F311885046FFF77BFD85F31188D9F81B
:103DB000103003F00F0202F1100123F00F03012273
:103DC0008A409A6186F311882378644A6260012BE5
:103DD00000F08380DFF884C14FF0070E5B20D4E948
:103DE0000A12E36922F4F042E26221F4F0419CF805
:103DF00000C0BCF1000F69D041F4847142F48472B8
:103E0000C4E90A121A6840F4417022F040021A60B4
:103E10001860C3F804E01968022241F040011960FB
:103E2000227085F3118886F3118885F3118886F353
:103E30001188636A01930320236A2070D3F800C0BD
:103E4000019BA16AD4F82CE01B68CCF80C704EF4EE
:103E5000806E41F48061CCF80420CCF80010C3F8E7
:103E60000C805A60C3F800E0DCF800203C4942F0C6
:103E700001028969CCF800201A6842F001021A6038
:103E8000384B4B62A160FFF7CBFB85F31188D9F863
:103E90001030012203F00F0123F00F038A409A61D2
:103EA00086F3118885F311885046FFF7B1FE14237D
:103EB00000BF013B13F0FF03FAD10237BB4508F105
:103EC00002087FF46DAF03B0BDE8F08F21F4847178
:103ED00022F48472C4E90A1294E723490820FEF709
:103EE000BFFB224920620B20FEF7BAFB204A216A61
:103EF000536CD1F800E0D4F804C043F48053536409
:103F00000146506EE369616240F480500968506672
:103F1000BCF80800526E03F10C02CEF808208A604B
:103F200002050FD5D4E90A12BCF80AE022F4F042E7
:103F300042F4205221F4F041E26241F420514EF06B
:103F4000070E54E7BCF80AE04EF0070E47E700BF43
:103F500008120020F8110020A4110020A46200081B
:103F60008C120020AC110020A1340008813400081C
:103F70000038024000120020000000000000000095
:103F8000F8B5114D114C2B78A2F10102B2FA82F270
:103F900052094BB9C4E90133C4E905330126237042
:103FA000E3602374E3612E70437D1E0104EB031371
:103FB00009270025A755C3E90112DD60FEF7F8FBCC
:103FC000BDE8F840FFF7DCBE08120020D411002045
:103FD00038B50F490F4A0B784BB9C2E90133C2E932
:103FE000053301241370D3601374D3610C70437DC7
:103FF0001C0102EB0313002111251555C3E9011122
:10400000D960FEF7D5FBBDE83840FFF7B9BE00BF69
:1040100008120020D4110020000000000000000061
:1040200038B50F490F4A0B784BB9C2E90133C2E9E1
:10403000053301241370D3601374D3610C70437D76
:104040001C0102EB031300210F251555C3E90111D3
:10405000D960FEF7ADFBBDE83840FFF791BE00BF69
:1040600008120020D4110020000000000000000011
:1040700038B50F490F4A0B784BB9C2E90133C2E991
:10408000053301241370D3601374D3610C70437D26
:104090001C0102EB031300210E251555C3E9011184
:1040A000D960FEF785FBBDE83840FFF769BE00BF69
:1040B00008120020D41100200000000000000000C1
:1040C000F8B5114D114C2B78A1F10101B1FA81F134
:1040D00049094BB9C4E90133C4E90533012623700A
:1040E000E3602374E3612E70437D1E0104EB031330
:1040F00005270025A755C3E90112DD60FEF758FB2F
:10410000BDE8F840FFF73CBE08120020D4110020A3
:10411000F8B5074618460E46A2F10105FCF79CF9D2
:10412000B5FA85F517496D090446FCF795FB30B3E0
:1041300015492046FCF79CFAFCF7D2FB03461348CE
:10414000134A017849B9C2E90111C2E905110124F4
:104150001170D1601174D16104707C7D210102EB7A
:1041600004144FF0080C02F801C03846C4E9016598
:10417000E360FEF71DFBBDE8F840FFF701BE034614
:10418000DDE700BF1B2474462A24743C081200207B
:10419000D41100200000000000000000000000001A
:1041A00038B50F490F4A0B784BB9C2E90133C2E960
:1041B000053301241370D3601374D3610C70437DF5
:1041C0001C0102EB031300210B251555C3E9011156
:1041D000D960FEF7EDFABDE83840FFF7D1BD00BF6A
:1041E00008120020D4110020000000000000000090
:1041F00038B50F490F4A0B784BB9C2E90133C2E910
:10420000053301241370D3601374D3610C70437DA4
:104210001C0102EB031300210A251555C3E9011106
:10422000D960FEF7C5FABDE83840FFF7A9BD00BF69
:1042300008120020D411002000000000000000003F
:10424000F8B504460846FEF75BFBB0F5800F24D2B4
:10425000124DA2F101022978B2FA82F20346520904
:104260000F4849B9C0E90111C0E9051101260170E3
:10427000C1600174C1612E70617D0E0100EB0111FE
:10428000072700258755C1E901232046CD60FEF7A9
:104290008FFABDE8F840FFF773BDF8BD08120020A3
:1042A000D411002000000000000000000000000009
:1042B00070B504460846FEF723FBB0F5800F1FD209
:1042C00003461048104902784AB9C1E90122C1E900
:1042D000052201250A70CA600A74CA610570627DF0
:1042E000100101EB0212002506260E54C2E9013529
:1042F0002046D560FEF75CFABDE87040FFF740BD90
:1043000070BD00BF08120020D41100200000000082
:1043100038B50F490F4A0B784BB9C2E90133C2E9EE
:10432000053301241370D3601374D3610C70437D83
:104330001C0102EB031300210C251555C3E90111E3
:10434000D960FEF735FABDE83840FFF719BD00BF68
:1043500008120020D411002000000000000000001E
:1043600038B51349134A0B7804464BB9C2E90133F7
:10437000C2E9053301201370D3601374D361087050
:10438000637D180102EB0313002112251554C3E9C4
:1043900001112046D960FEF70BFAFFF7F1FC627DB0
:1043A000054B134498781B7943EA002038BD00BFC1
:1043B00008120020D4110020F81100200000000095
:1043C00008B5FFF7CDFF08BD0000000000000000A9
:1043D00038B50F490F4A0B784BB9C2E90133C2E92E
:1043E000053301241370D3601374D3610C70437DC3
:1043F0001C0102EB0313002110251555C3E901111F
:10440000D960FEF7D5F9BDE83840FFF7B9BC00BF69
:1044100008120020D411002000000000000000005D
:10442000FFF7D6BF00000000000000000000000001
:104430000368174A5B6E934270B504460D4625D15A
:10444000FFF7C6FF1349144A0B78A5F10105B5FA29
:1044500085F56D094BB9C2E90133C2E90533012085
:104460001370D3601374D3610870637D180102EB7D
:104470000313002104261654C3E901512046D960D4
:10448000FEF796F9BDE87040FFF77ABC9847D9E788
:104490002144000808120020D41100200000000070
:1044A00038B50F490F4A0B784BB9C2E90133C2E95D
:1044B000053301241370D3601374D3610C70437DF2
:1044C0001C0102EB031300210D251555C3E9011151
:1044D000D960FEF76DF9BDE83840FFF751BC00BF69
:1044E00008120020D411002000000000000000008D
:1044F000FFF7D6BF00000000000000000000000031
:10450000F8B50F4D0F4C2B784BB9C4E90133C4E912
:10451000053301262370E3602374E3612E70437D2D
:104520001E0104EB031303270025A755C3E901125D
:10453000DD60FEF73DF9BDE8F840FFF721BC00BFA4
:1045400008120020D411002000000000000000002C
:1045500070B504461046A1F10105FBF77DFFB5FAE1
:1045600085F50D496D090646FCF776F960B10B49F2
:104570003046FCF77DF8FCF7B3F9294602462046A1
:10458000BDE87040FFF7BCBF024629462046BDE8A3
:104590007040FFF7B5BF00BF1B2474462A24743C4B
:1045A00070B51C4C1C4A237806460D464BB9C2E92F
:1045B0000133C2E9053301211370D3601374D36151
:1045C0002170737D190102EB031300240220505463
:1045D000C3E90154DC603046FEF7EAF8FFF7D0FB90
:1045E000B2690E4B717D05EB850502EB8505204612
:1045F000AC7B5D18E400012315F81320C3EB437175
:1046000004EBC10101338A40042B40EA0200F3D1DC
:1046100070BD00BF08120020D4110020F811002046
:1046200008B50021FFF7BCFFB0F5001F28BFA0F5BB
:10463000800008BD00000000000000000000000035
:104640002DE9F04F00F10C04DFF8F8A1DFF8F89144
:1046500083B00546274600F1140657F8048B98F8F6
:104660006030092B1CD0B742F7D1E868DFF8DC9145
:10467000DFF8DCB100274FF03F484FF07C5AFEF7DF
:1046800097F8FFF77DFB54F8043B93F86020013A5C
:10469000072A74D8DFE802F082759E8EA9683B294C
:1046A000D8F80030DA68D3F8C8B052454FF00001AE
:1046B000404640F0BF80FFF773FFB0F5001F0CD2FB
:1046C000CB450ED1FEF71CF9022102464046FEF70B
:1046D000EFFC002388F86030C5E7CB45A0F58000EB
:1046E000F0D001464046D847BDE718461821009350
:1046F000FFF756FF009BDB6A1880C0F30010A6424C
:10470000E060C0D105F11C0003B0BDE8F08F9A69EC
:10471000494992F872201846FEF7CAFB83B2B3F5F6
:10472000805F2CD21846FBF79BFE4946FBF7ECFE58
:1047300039460090FCF79AF8009A002865D1104697
:104740000192FCF7A7F80090FBF78AFE019A014658
:104750001046FBF7CFFD4146FCF774F8009B00289C
:104760000CBF1846581ECAE79A69334992F85E2072
:104770001846FEF79DFB83B2B3F5805FD2D30020CD
:10478000BDE79A692C4992F836201846FEF790FB4F
:10479000B0F5001FB3D3A0F58000B0E79A692649B1
:1047A000927B1846FEF784FBB0F5001FA7D3A0F557
:1047B0008000A4E79A69204992F886201846FEF7FF
:1047C00077FB83B2B3F5806FD9D21846FBF748FE6A
:1047D0001A49ABE79A69184992F84A201846FEF739
:1047E00067FBFBF739FE1649A0E79A69124992F870
:1047F0009A201846FEF75CFB83B2B3F5805FBED209
:104800001846FBF72DFE594690E710460192FCF73B
:1048100041F80090FBF724FE019A01461046FBF791
:1048200069FD5146FCF70EF8009B002814BF18469E
:10483000581C64E7904743E7F81100200B247441AB
:104840002A24743C21460008F1300008FED4684157
:104850000124743E00000000000000000000000081
:1048600038B50D4606210446FFF79AFEA5F1010171
:10487000B1FA81F1024649092046FEF731FB0023D7
:1048800084F8603038BD00BF000000000000000068
:1048900010B5044618212046FFF782FEE36A18800F
:1048A0008307F7D510BD00BF000000000000000026
:1048B00038B50D4606210446FFF772FEA5F1010149
:1048C000B1FA81F1024649092046BDE83840FFF7B8
:1048D00017BE00BF00000000000000000000000044
:1048E00010B518210446FFF75BFEE36A1880C0F399
:1048F000001010BD000000000000000000000000DB
:1049000038B50521FFF74CFE83B2B3F5805F1DD2A9
:104910001846FBF7A5FD1849FBF7F6FD00210546F3
:10492000FBF7A4FFA0B92846FBF7B4FF0446FBF74A
:1049300097FD01462846FBF7DDFC4FF03F41FBF7B2
:1049400081FF00280CBF2046601E38BD002038BD06
:104950002846FBF79FFF0446FBF782FD01462846E9
:10496000FBF7C8FC4FF07C51FBF76CFF002814BF2D
:104970002046601C38BD00BFFED468410000000026
:1049800038B50421FFF70CFE83B2B3F5805F1DD26A
:104990001846FBF765FD1849FBF7B6FD00210546F3
:1049A000FBF764FFA0B92846FBF774FF0446FBF74A
:1049B00057FD01462846FBF79DFC4FF03F41FBF7B2
:1049C00041FF00280CBF2046601E38BD002038BDC6
:1049D0002846FBF75FFF0446FBF742FD01462846E9
:1049E000FBF788FC4FF07C51FBF72CFF002814BF2D
:1049F0002046601C38BD00BFFED4684100000000A6
:104A000038B50721FFF7CCFD83B2B3F5805F1DD227
:104A10001846FBF725FD1849FBF776FD00210546F2
:104A2000FBF724FFA0B92846FBF734FF0446FBF749
:104A300017FD01462846FBF75DFC4FF03F41FBF7B1
:104A400001FF00280CBF2046601E38BD002038BD85
:104A50002846FBF71FFF0446FBF702FD01462846E8
:104A6000FBF748FC4FF07C51FBF7ECFE002814BF2D
:104A70002046601C38BD00BF0124743E00000000C9
:104A800038B50621FFF78CFD83B2B3F5806F1DD2D8
:104A90001846FBF7E5FC1849FBF736FD00210546F3
:104AA000FBF7E4FEA0B92846FBF7F4FE0446FBF74B
:104AB000D7FC01462846FBF71DFC4FF03F41FBF7B2
:104AC000C1FE00280CBF2046601E38BD002038BD46
:104AD0002846FBF7DFFE0446FBF7C2FC01462846EA
:104AE000FBF708FC4FF07C51FBF7ACFE002814BF2D
:104AF0002046601C38BD00BF0B247441000000003C
:104B000038B50321FFF74CFDFBF7A6FC1649FBF770
:104B1000FBFC00210546FBF7A9FE90B12846FBF7F8
:104B2000B9FE0446FBF79CFC01462846FBF7E2FB76
:104B30004FF07C51FBF786FE002814BF2046601C16
:104B400038BD2846FBF7A6FE0446FBF789FC014664
:104B50002846FBF7CFFB4FF03F41FBF773FE0028E1
:104B60000CBF2046601E38BD2A24743C00000000A3
:104B700008B50221FFF714FDB0F5001F28BFA0F50E
:104B8000800008BD000000000000000000000000E0
:104B9000C9B2FFF705BD00BF000000000000000023
:104BA000F8B50F4D0F4C2B784BB9C4E90133C4E96C
:104BB000053301262370E3602374E3612E70437D87
:104BC0001E0104EB031301270025A755C3E90112B9
:104BD000DD60FDF7EDFDBDE8F840FFF7D1B800BF9F
:104BE00008120020D4110020000000000000000086
:104BF00038B504460846FBF72FFC0C490546FBF781
:104C00002BFE60B10A492846FBF732FDFBF768FE30
:104C1000052182B22046FFF7C3FF012038BD0246BE
:104C200005212046FFF7BCFF012038BD71C668474B
:104C3000FED46841000000000000000000000000F9
:104C400038B504460846FBF707FC0C490546FBF758
:104C500003FE60B10A492846FBF70AFDFBF740FE58
:104C6000042182B22046FFF79BFF012038BD024697
:104C700004212046FFF794FF012038BD71C6684724
:104C8000FED46841000000000000000000000000A9
:104C900038B504460846FBF7DFFB0C490546FBF731
:104CA000DBFD60B10A492846FBF7E2FCFBF718FE82
:104CB000072182B22046FFF773FF012038BD02466C
:104CC00007212046FFF76CFF012038BDBF14744454
:104CD0000124743E000000000000000000000000FD
:104CE00038B504460846FBF7B7FB0C490546FBF709
:104CF000B3FD60B10A492846FBF7BAFCFBF7F0FDAB
:104D0000062182B22046FFF74BFF012038BD024644
:104D100006212046FFF744FF012038BD02E7734615
:104D20000B2474410000000000000000000000009F
:104D300008B503460846FDF7E3FD02210246184682
:104D4000BDE80840FFF72CBF000000000000000095
:104D500010B500210446FFF723FC0221024620463D
:104D6000BDE81040FFF71CBF00000000000000007D
:104D7000C9B2FFF715BF00BF00000000000000002F
:104D8000072910D838B50368094A5B6E93420C4670
:104D900005460AD1FFF71CFB284622461521FFF7DE
:104DA000FFFE012038BD002070479847F4E700BFA0
:104DB0002144000800000000000000000000000086
:104DC00003688B4AD3F8903093422DE9F0410446B2
:104DD0000D4640F0D981FFF763FB2368854A9B6845
:104DE0009342204640F0D281FFF7BAFA6E698249B9
:104DF0003046FBF731FD002800F0AF817F49304697
:104E0000FBF736FCFBF76CFD80B20746AE697A49CA
:104E1000A4F840003046FBF71FFD30B1774930461B
:104E2000FBF726FCFBF75CFD80B2EE697449A4F841
:104E300042003046FBF710FD30B172493046FBF7B7
:104E400017FCFBF74DFD80B22E6A6F49A4F84400B1
:104E50003046FBF701FD30B16C493046FBF708FCEA
:104E6000FBF73EFD80B26E6A6949A4F84600304601
:104E7000FBF7F2FC50B167493046FBF7F9FB4FF006
:104E80007C51FBF737FAFBF72BFD80B22E68A4F8B4
:104E900048004FF08741A86AFBF736FB3146FBF725
:104EA000E7FBFBF71DFD84F84A00E86A4FF08741F5
:104EB000FBF72AFB3146FBF7DBFBFBF711FD84F820
:104EC0004B00286B4FF08741FBF71EFB3146FBF789
:104ED000CFFBFBF705FD84F84C00686B4FF0874172
:104EE000FBF712FB3146FBF7C3FBFBF7F9FC84F839
:104EF0004D00AE6B48493046FBF7AEFC30B1474938
:104F00003046FBF7B5FBFBF7EBFC80B2EE6B444998
:104F1000A4F84E003046FBF79FFC30B141493046C3
:104F2000FBF7A6FBFBF7DCFCC0B284F850002E6C4C
:104F30003B493046FBF790FC30B13A493046FBF72D
:104F400097FBFBF7CDFCC0B284F851006E6C34497E
:104F50003046FBF781FC30B132493046FBF788FB25
:104F6000FBF7BEFCC0B284F8520095F8483084F8D4
:104F70005330EE6C2C493046FBF76EFC002800F0F5
:104F8000F6802A493046FBF773FB8046FBF7A8FC06
:104F9000C6B23046FBF764FA01464046FBF7AAF971
:104FA0004FF07C51FBF74EFC002840F0DB8084F88A
:104FB00055602E6D1E493046FBF74EFC002800F070
:104FC000D4801C493046FBF753FB8046FBF788FC36
:104FD000C6B23046FBF744FA01464046FBF78AF971
:104FE0004FF07C51FBF72EFC002840F0B88023E006
:104FF000F1440008C143000871C66847FED4684107
:1050000002E773460B247441BF1474440124743EB8
:1050100080E173460000744123207444F423743DFE
:10502000D911833B6E9583370080BB450080BB431D
:1050300000007A450000FA4184F8566095F8553032
:1050400084F85830B5F85630A4F85A3095F85430F2
:1050500084F857303A4604212046FFF7A1FDB4F802
:10506000422005212046FFF79BFDB4F8442006218D
:105070002046FFF795FDB4F8462007212046FFF7AC
:105080008FFDB4F8482008212046FFF789FD94F8E9
:105090004A2009212046FFF783FD94F84B200A217E
:1050A0002046FFF77DFD94F84C200B212046FFF7AA
:1050B00077FD94F84D200C212046FFF771FDB4F8E0
:1050C0004E200D212046FFF76BFD94F850200E2155
:1050D0002046FFF765FD94F851200F212046FFF789
:1050E0005FFD94F8522010212046FFF759FD94F8F7
:1050F000532011212046FFF753FD94F8552013212A
:105100002046FFF74DFD94F8562014212046FFF766
:1051100047FD94F8582016212046FFF741FDB4F8CA
:105120005A2017212046FFF73BFD236819495A6C86
:1051300094F857508A421FD1072D1AD85B6E164A31
:105140009342204624D1FFF743F920462A461521F1
:10515000FFF726FD0020BDE8F081074656E6013E38
:10516000F6B269E7013EF6B221E7064664E7064675
:105170001DE70120BDE8F08129462046904780F0D8
:105180000100C0B2BDE8F081984726E698472DE6B9
:105190009847DAE7814D000821440008000000002C
:1051A000234B24481A6962F0FF022DE9F0431A618B
:1051B0001A69D2B21A614FF0FF341A695A695C61F8
:1051C000002259695A615969196A61F0805119625E
:1051D000196A01F080511962196A596A5C62596A48
:1051E0005A62596A196C41F080511964196E41F084
:1051F00080511966196E016841F480710160196F60
:1052000001F44071B1F5007F87B003D04FF48031D5
:1052100019671A67074C08486168084B084D21F464
:105220000071002261600146026003F1C0000BE0E2
:1052300000380240007000404C1400200C67000849
:105240001060024053F80C5C2A600C3383424A60C1
:1052500001F10801F6D1C24CC24BC34DC3494FF016
:10526000FF30A0606022E0604024A860E86083F81E
:1052700006234FF48070C3F8804180251C604FF4F2
:10528000007483F80723C3F880511D6083F8082356
:105290004FF48065C3F88001186083F80923C3F8D0
:1052A00080411C604FF4000483F80A23C3F8805146
:1052B0001D6083F81723C3F880411C6083F82823FE
:1052C00001F18004C3F8840100225860C1E9002282
:1052D00008318C42FAD1A64DDFF8DCC2A54BA64CB2
:1052E000A649A7486A612E46102746F804CBAF634B
:1052F00005F10C0C05F17407EC64696705F15404C1
:1053000005F16401C5E903CCC5E90844C5E91111FB
:10531000DFF8A8E2DFF8A8C22F646E6005F130075D
:105320000126AC61E961974CE96303F10C01C3E923
:105330000122C3E90822C3E903115A61C3F81CE042
:10534000C3F828C01E70C5E90A25C5E90C772E727E
:105350002D65DC62036C8C4CDFF868C264603343FB
:105360000364036EA26033430366036EDCF8083007
:1053700024613343CCF808304FF080438349794FA0
:10538000DFF844E242F2273098624FF0FF30D862F3
:1053900064619A6160625A63A262DA604A605A602C
:1053A0008A605E611E60802387F81C334FF0805650
:1053B00004F11C03C7F88061E3613E60744E0E6027
:1053C000744F754E2362754BCEF8007001F10C0CD2
:1053D000CEF80460002700262460C1F80CC0CDE997
:1053E0000467009003F13C0703F1400003F1240639
:1053F000C3E90033C3E90F70C1F810C04A61CDE9B9
:10540000012203F110094FF0140803F1280E4FF0A8
:105410001C0C626703929A605A61DA6203F14401DC
:105420005F4A5E620426C3F81090C3F81880C3F880
:1054300028E0C3F830C05964DE615E631A629A6383
:105440006846FDF78DFF6846FDF762FF013EF7D124
:10545000544A6769009B63678020012102F12C0395
:10546000DFF868E1A06302F1280CE066C4E9196680
:10547000C4E9104784F8516084F85210C4F848E039
:1054800020203A61C4E90522C4E916C384F850100B
:10549000E664236680F3118862B6434B434FD3F82A
:1054A0000CC04FF6FF0E0CEA0E0C0EF1604E4CEAEB
:1054B0000707AEF60F3EDF60DEF80C70DFF810C1B4
:1054C00047F08077CEF80C70DCF800704FF0100ECB
:1054D0000F43CCF8007083F81FE083F8220086F3B6
:1054E000118862B680F31188314B6069C3F8981057
:1054F000C3E9326183F8B2102E4FDFF8D8E0DFF84D
:10550000D8C0DF6603F16C01C3F89C1003F190076B
:105510000221A3F8B010C3F8A400C3F8C460C3F814
:105520008CE0C3F8A8C01E67C3F8A040C3F8AC3035
:105530000761A169C3F8B460D1F808C0676103F1DD
:10554000BC0003F1B80EC3E92EE0C3F8C000BCF103
:10555000000F00F0F38083F8B060303A3EE000BF07
:105560000060024000E100E0006402400C120020F4
:1055700028110020A41100206129000800440040E7
:1055800000380240460001068C1200203014002032
:1055900021290008E014002000000220041300204C
:1055A000E1320008BC12002000ED00E00003FA0523
:1055B0005013002071340008586800080030014082
:1055C00016000106002004E028140020C06700082F
:1055D000001000E0D10200089C6200081268916887
:1055E0000029FBD1C3F890205168C3F894100F60D4
:1055F0005760002383F31188202383F311882B7ACB
:10560000012B11D17C4B7D4A196C41F40031196496
:10561000196E41F400311966C02040211B6E82F8DA
:105620002603C2F8841151606B6F754A934200F0F3
:105630009980744840F6271240F29341834218BF84
:105640000A469A604020012642F22C11002218617D
:105650005E61FF20D9601A6002211C685B6885F8D2
:105660007800297282F311882C20FEF711FB664F17
:10567000664B0360044620216548664DFDF758F8E7
:1056800010213846FDF754F81023BB616420FEF763
:10569000FFFA0746FDF774FF67606420FEF7F8FA2B
:1056A0000746FDF76DFFA26A6168A76002F00F036D
:1056B000103322F00F0206FA03F3C4E9031705F1D1
:1056C0005801C4E905510A209361FEF7D9F8A36A8D
:1056D00003F00F0223F00F0396409E610A20FEF7AD
:1056E000CFF86068616903681B68984720B9A068B3
:1056F000A16903681B689847072385F8543085F82B
:10570000AC30E068444D0368444E2C600C34D3F850
:10571000F8303460322200219847336858680368B3
:105720003222D3F8F83001219847286803681B68B3
:10573000984741F28830FEF7A3F8FAE781F8206035
:10574000303A126890680028FBD15068C1E9002007
:10575000016051600122324883F8B020A761FAF756
:10576000AFFD46E740F627126BE754E902530733D3
:10577000DB0844F8043C05F1040807460C35A4F1A5
:105780000806202383F311882846FEF789F80023B2
:1057900083F31188434698451A6825D142BB54F8D3
:1057A000041C44F8082C1E6054F8080C4A1C06EB34
:1057B000C201884206D1D0E900010A4444F8080C2D
:1057C00044F8042C59684A1C03EBC202964205D1E6
:1057D00054E9020201320A4418605A602846FEF772
:1057E00017FA3846FBF706FE9E42D7D81346D2E793
:1057F0009642D4D3FAE700BF0038024000E100E04F
:10580000001001400014014000000240D86500086B
:105810000004024040100020D4140020D0140020C6
:10582000E013002000000000000000000000000065
:10583000844A85481369854943F0FF03F0B5136135
:105840001369834C834E844F844D23F0FF0313610F
:105850001369136B43F0FF031363136D43F0FF03EE
:1058600013656FF48A6C0023D2F850E04360C0F8EF
:1058700008C04FF6DF7CC460C0F814C04FF4EE449B
:105880004FF42A2C0462C0F824C04FF0FF340760A4
:105890004FF0553C4FF6FF7080277360B460C6F838
:1058A0000CC070613362736237606D4F6D4E6B6018
:1058B000AC60EE606C4E68612B626B622B604B607B
:1058C00005F580558C60C1F80CC048610B624B62D5
:1058D0000B6001F580517B60BC60C7F80CC078613B
:1058E0003B627B623B60A7F5D0377360B460C6F85B
:1058F0000CC070613362736233606B605B4EAC608E
:10590000C5F80CC068612B626B622B604B604FF076
:1059100080558C604FF44044CE6048610B624B620E
:105920000B6015643C60136843F001031360136857
:105930009907FCD59168434B21F0030191609A6867
:1059400012F00C02FBD118683E4900F0F900186013
:105950009A601A6842F4A0221A600B689B03FCD577
:105960004A6F384B42F001024A675A6F9707FCD5DD
:105970003F4A5A6019683F4A41F080711960536884
:105980005E04FCD511683B4B41F4803111605A68CC
:10599000D503FCD51A68374942F400321A604B68C7
:1059A0009C03FCD5274B1A689001FCD5324AC3F8FA
:1059B00084201968234A41F0806119601368190135
:1059C000FCD52E4BC2F8883011681E4B41F0805137
:1059D00011601A689200FCD52949996029482A4A21
:1059E000C3F88C004FF00061C3F894101268274B85
:1059F0009A421DD0264B40F205721A60244A136861
:105A000003F00F03052BFAD10E4B9A6842F0020205
:105A10009A609A6802F00C02082AFAD15A6C42F491
:105A200080425A645A6E42F480425A665B6EF0BD00
:105A3000184A194B12689A42DCD1154B40F20512F4
:105A40001A60DBE70038024000000240000C024010
:105A50000551156400040240A004802A0008024099
:105A6000001002405555550100140240505555553F
:105A7000085A400700700040043041440430034499
:105A80000094084003008000002004E0116400201E
:105A9000003C024000ED00E041C20F410000000068
:105AA0002DE9F047664C666FF7683368DA059DB2FA
:105AB0007BD4202383F3118815F02F0F4DD0DFF80E
:105AC00088814FF0000908E0AD06D6F804A01DD487
:105AD000336813F02F0F9DB23FD02B07F4D015F091
